{
  "contractName": "ControlFlow",
  "abi": [
    {
      "inputs": [],
      "payable": false,
      "stateMutability": "nonpayable",
      "type": "constructor"
    },
    {
      "constant": true,
      "inputs": [
        {
          "internalType": "uint256",
          "name": "",
          "type": "uint256"
        }
      ],
      "name": "numbers",
      "outputs": [
        {
          "internalType": "uint256",
          "name": "",
          "type": "uint256"
        }
      ],
      "payable": false,
      "stateMutability": "view",
      "type": "function"
    },
    {
      "constant": true,
      "inputs": [],
      "name": "owner",
      "outputs": [
        {
          "internalType": "address",
          "name": "",
          "type": "address"
        }
      ],
      "payable": false,
      "stateMutability": "view",
      "type": "function"
    },
    {
      "constant": true,
      "inputs": [
        {
          "internalType": "uint256",
          "name": "_number",
          "type": "uint256"
        }
      ],
      "name": "isEvenNumber",
      "outputs": [
        {
          "internalType": "bool",
          "name": "",
          "type": "bool"
        }
      ],
      "payable": false,
      "stateMutability": "view",
      "type": "function"
    },
    {
      "constant": true,
      "inputs": [],
      "name": "countEvenNumbers",
      "outputs": [
        {
          "internalType": "uint256",
          "name": "",
          "type": "uint256"
        }
      ],
      "payable": false,
      "stateMutability": "view",
      "type": "function"
    },
    {
      "constant": true,
      "inputs": [],
      "name": "amITheOwner",
      "outputs": [
        {
          "internalType": "bool",
          "name": "",
          "type": "bool"
        }
      ],
      "payable": false,
      "stateMutability": "view",
      "type": "function"
    }
  ],
  "bytecode": "0x6080604052604051806101400160405280600160ff168152602001600260ff168152602001600360ff168152602001600460ff168152602001600560ff168152602001600660ff168152602001600760ff168152602001600860ff168152602001600960ff168152602001600a60ff16815250600090600a6100829291906100d6565b5034801561008f57600080fd5b5033600160006101000a81548173ffffffffffffffffffffffffffffffffffffffff021916908373ffffffffffffffffffffffffffffffffffffffff16021790555061014d565b828054828255906000526020600020908101928215610117579160200282015b82811115610116578251829060ff169055916020019190600101906100f6565b5b5090506101249190610128565b5090565b61014a91905b8082111561014657600081600090555060010161012e565b5090565b90565b6102c68061015c6000396000f3fe608060405234801561001057600080fd5b50600436106100575760003560e01c8063306d3e021461005c5780638da5cb5b1461007a578063d39fa233146100c4578063e5054c6914610106578063e8ea34451461014c575b600080fd5b61006461016e565b6040518082815260200191505060405180910390f35b6100826101cb565b604051808273ffffffffffffffffffffffffffffffffffffffff1673ffffffffffffffffffffffffffffffffffffffff16815260200191505060405180910390f35b6100f0600480360360208110156100da57600080fd5b81019080803590602001909291905050506101f1565b6040518082815260200191505060405180910390f35b6101326004803603602081101561011c57600080fd5b8101908080359060200190929190505050610212565b604051808215151515815260200191505060405180910390f35b610154610239565b604051808215151515815260200191505060405180910390f35b6000806000905060008090505b6000805490508110156101c3576101a86000828154811061019857fe5b9060005260206000200154610212565b156101b65781806001019250505b808060010191505061017b565b508091505090565b600160009054906101000a900473ffffffffffffffffffffffffffffffffffffffff1681565b600081815481106101fe57fe5b906000526020600020016000915090505481565b6000806002838161021f57fe5b06141561022f5760019050610234565b600090505b919050565b6000600160009054906101000a900473ffffffffffffffffffffffffffffffffffffffff1673ffffffffffffffffffffffffffffffffffffffff163373ffffffffffffffffffffffffffffffffffffffff161490509056fea265627a7a723158209fd3c9b5f6d5e9c4dc4bdf0a6eccb3961950254f2cf64f192c15e55376cecc2f64736f6c63430005100032",
  "source": "pragma solidity ^0.5.16;\n\ncontract ControlFlow {\n\n\tuint[] public numbers = [1,2,3,4,5,6,7,8,9,10];\n\taddress public owner;\n\t\n\tconstructor() public {\n\t\t// \"constructor\" runs only at deployment\n\t\t// store the deployer user address\n\t\towner = msg.sender; \n\t}\n\n\t// Ifs\n\tfunction isEvenNumber(uint _number) public view returns(bool) {\n\t\tif(_number % 2 == 0) {\n\t\t\treturn true;\n\t\t} else {\n\t\t\treturn false;\n\t\t}\n\t}\n\n\t// Loops\n\tfunction countEvenNumbers() public view returns(uint) {\n\t\tuint count = 0;\n\t\tfor(uint i=0; i<numbers.length; i++) {\n\t\t\tif(isEvenNumber(numbers[i])) {\n\t\t\t\tcount ++;\n\t\t\t}\n\t\t}\n\t\treturn count;\n\t}\n\n\t// Check if current user calling is the deployer\n\tfunction amITheOwner() public view returns(bool) {\n\t\treturn msg.sender == owner;\n\t\t// Usage in truffle console:\n\t\t// truffle deploy\n\t\t// truffle console\n\t\t// CFI = await ControlFlow.deployed() // get instance of contract\n\t\t// CFI.amITheOwner() // will return true as default account (accounts[0]) is the deployer\n\t\t// CFI.amITheOwner({from:accounts[1]}) // will return false as called form a different account\n\t\t// https://ethereum.stackexchange.com/questions/19283/in-the-truffle-console-how-to-set-and-get-current-account\n\t}\n}",
  "sourcePath": "/home/ecomerciar/Documents/tuts/truffle/basic-solidity-truffle/contracts/ControlFlow.sol",
  "compiler": {
    "name": "solc",
    "version": "0.5.16+commit.9c3226ce.Emscripten.clang"
  },
  "schemaVersion": "3.2.3",
  "updatedAt": "2020-08-29T22:53:19.442Z",
  "networkType": "ethereum",
  "devdoc": {
    "methods": {}
  },
  "userdoc": {
    "methods": {}
  }
}