{
  "contractName": "ControlFlow",
  "abi": [
    {
      "constant": true,
      "inputs": [
        {
          "internalType": "uint256",
          "name": "",
          "type": "uint256"
        }
      ],
      "name": "numbers",
      "outputs": [
        {
          "internalType": "uint256",
          "name": "",
          "type": "uint256"
        }
      ],
      "payable": false,
      "stateMutability": "view",
      "type": "function"
    },
    {
      "constant": true,
      "inputs": [
        {
          "internalType": "uint256",
          "name": "_number",
          "type": "uint256"
        }
      ],
      "name": "isEvenNumber",
      "outputs": [
        {
          "internalType": "bool",
          "name": "",
          "type": "bool"
        }
      ],
      "payable": false,
      "stateMutability": "view",
      "type": "function"
    },
    {
      "constant": true,
      "inputs": [],
      "name": "countEvenNumbers",
      "outputs": [
        {
          "internalType": "uint256",
          "name": "",
          "type": "uint256"
        }
      ],
      "payable": false,
      "stateMutability": "view",
      "type": "function"
    }
  ],
  "bytecode": "0x6080604052604051806101400160405280600160ff168152602001600260ff168152602001600360ff168152602001600460ff168152602001600560ff168152602001600660ff168152602001600760ff168152602001600860ff168152602001600960ff168152602001600a60ff16815250600090600a610082929190610095565b5034801561008f57600080fd5b5061010c565b8280548282559060005260206000209081019282156100d6579160200282015b828111156100d5578251829060ff169055916020019190600101906100b5565b5b5090506100e391906100e7565b5090565b61010991905b808211156101055760008160009055506001016100ed565b5090565b90565b6101c68061011b6000396000f3fe608060405234801561001057600080fd5b50600436106100415760003560e01c8063306d3e0214610046578063d39fa23314610064578063e5054c69146100a6575b600080fd5b61004e6100ec565b6040518082815260200191505060405180910390f35b6100906004803603602081101561007a57600080fd5b8101908080359060200190929190505050610149565b6040518082815260200191505060405180910390f35b6100d2600480360360208110156100bc57600080fd5b810190808035906020019092919050505061016a565b604051808215151515815260200191505060405180910390f35b6000806000905060008090505b600080549050811015610141576101266000828154811061011657fe5b906000526020600020015461016a565b156101345781806001019250505b80806001019150506100f9565b508091505090565b6000818154811061015657fe5b906000526020600020016000915090505481565b6000806002838161017757fe5b061415610187576001905061018c565b600090505b91905056fea265627a7a72315820b807655c28d0a2dd589125c4a5344116a2c50ec6f278186b905d39daba1b588564736f6c63430005100032",
  "source": "pragma solidity ^0.5.16;\n\ncontract ControlFlow {\n\n\tuint[] public numbers = [1,2,3,4,5,6,7,8,9,10];\n\n\t// Ifs\n\tfunction isEvenNumber(uint _number) public view returns(bool) {\n\t\tif(_number % 2 == 0) {\n\t\t\treturn true;\n\t\t} else {\n\t\t\treturn false;\n\t\t}\n\t}\n\n\t// Loops\n\tfunction countEvenNumbers() public view returns(uint) {\n\t\tuint count = 0;\n\t\tfor(uint i=0; i<numbers.length; i++) {\n\t\t\tif(isEvenNumber(numbers[i])) {\n\t\t\t\tcount ++;\n\t\t\t}\n\t\t}\n\t\treturn count;\n\t}\n\n}",
  "sourcePath": "/home/ecomerciar/Documents/tuts/truffle/basico/contracts/Ep5ControlFlow.sol",
  "compiler": {
    "name": "solc",
    "version": "0.5.16+commit.9c3226ce.Emscripten.clang"
  },
  "schemaVersion": "3.2.3",
  "updatedAt": "2020-08-22T23:07:49.338Z",
  "networkType": "ethereum",
  "devdoc": {
    "methods": {}
  },
  "userdoc": {
    "methods": {}
  }
}