{
  "contractName": "Counter",
  "abi": [
    {
      "constant": true,
      "inputs": [],
      "name": "count",
      "outputs": [
        {
          "internalType": "uint256",
          "name": "",
          "type": "uint256"
        }
      ],
      "payable": false,
      "stateMutability": "view",
      "type": "function"
    },
    {
      "constant": false,
      "inputs": [],
      "name": "increment",
      "outputs": [],
      "payable": false,
      "stateMutability": "nonpayable",
      "type": "function"
    }
  ],
  "bytecode": "0x608060405260008055348015601357600080fd5b5060a9806100226000396000f3fe6080604052348015600f57600080fd5b506004361060325760003560e01c806306661abd146037578063d09de08a146053575b600080fd5b603d605b565b6040518082815260200191505060405180910390f35b60596061565b005b60005481565b600080815480929190600101919050555056fea265627a7a72315820bab73f41bb16a1c06176136f6ed5ee31b4cf559303f0e55c405d974094f4e37364736f6c63430005100032",
  "source": "pragma solidity ^0.5.16;\n\ncontract Counter {\n\n\tuint public count = 0;\n\n\tfunction increment() public {\n\t\tcount ++;\n\t}\n}\n\n/*\nLong version: constuctor, explicit getter, etc\ncontract Counter {\n\n\tuint count;\n\n\tconstructor() public {\n\t\tcount = 0;\n\t}\n\n\tfunction getCount() public view returns(uint) {\n\t\treturn count;\n\t}\n\n\tfunction increment() public {\n\t\tcount = count + 1;\n\t}\n}\n*/",
  "sourcePath": "/home/ecomerciar/Documents/tuts/truffle/basic-solidity-truffle/contracts/Counter.sol",
  "compiler": {
    "name": "solc",
    "version": "0.5.16+commit.9c3226ce.Emscripten.clang"
  },
  "schemaVersion": "3.2.3",
  "updatedAt": "2020-08-29T22:53:19.433Z",
  "networkType": "ethereum",
  "devdoc": {
    "methods": {}
  },
  "userdoc": {
    "methods": {}
  }
}