{
  "contractName": "DataTypesOne",
  "abi": [
    {
      "constant": true,
      "inputs": [],
      "name": "myAddress",
      "outputs": [
        {
          "internalType": "address",
          "name": "",
          "type": "address"
        }
      ],
      "payable": false,
      "stateMutability": "view",
      "type": "function"
    },
    {
      "constant": true,
      "inputs": [],
      "name": "myBytes32",
      "outputs": [
        {
          "internalType": "bytes32",
          "name": "",
          "type": "bytes32"
        }
      ],
      "payable": false,
      "stateMutability": "view",
      "type": "function"
    },
    {
      "constant": true,
      "inputs": [],
      "name": "myString",
      "outputs": [
        {
          "internalType": "string",
          "name": "",
          "type": "string"
        }
      ],
      "payable": false,
      "stateMutability": "view",
      "type": "function"
    },
    {
      "constant": true,
      "inputs": [],
      "name": "myStruct",
      "outputs": [
        {
          "internalType": "uint256",
          "name": "myInt",
          "type": "uint256"
        },
        {
          "internalType": "string",
          "name": "myString",
          "type": "string"
        }
      ],
      "payable": false,
      "stateMutability": "view",
      "type": "function"
    },
    {
      "constant": true,
      "inputs": [],
      "name": "myUint",
      "outputs": [
        {
          "internalType": "uint256",
          "name": "",
          "type": "uint256"
        }
      ],
      "payable": false,
      "stateMutability": "view",
      "type": "function"
    },
    {
      "constant": true,
      "inputs": [],
      "name": "myUint256",
      "outputs": [
        {
          "internalType": "uint256",
          "name": "",
          "type": "uint256"
        }
      ],
      "payable": false,
      "stateMutability": "view",
      "type": "function"
    },
    {
      "constant": true,
      "inputs": [],
      "name": "myUint8",
      "outputs": [
        {
          "internalType": "uint8",
          "name": "",
          "type": "uint8"
        }
      ],
      "payable": false,
      "stateMutability": "view",
      "type": "function"
    },
    {
      "constant": false,
      "inputs": [],
      "name": "getMyUint",
      "outputs": [
        {
          "internalType": "uint256",
          "name": "",
          "type": "uint256"
        }
      ],
      "payable": false,
      "stateMutability": "nonpayable",
      "type": "function"
    },
    {
      "constant": false,
      "inputs": [],
      "name": "getValue",
      "outputs": [
        {
          "internalType": "uint256",
          "name": "",
          "type": "uint256"
        }
      ],
      "payable": false,
      "stateMutability": "nonpayable",
      "type": "function"
    }
  ],
  "bytecode": "0x60806040526001600055600180556001600260006101000a81548160ff021916908360ff1602179055506040518060400160405280600681526020017f48656c6c6f21000000000000000000000000000000000000000000000000000081525060039080519060200190610074929190610176565b507f536d616c6c657220737472696e67000000000000000000000000000000000000600455738f42bdbafef90dd4434bb998912bd7771f8b0cc9600560006101000a81548173ffffffffffffffffffffffffffffffffffffffff021916908373ffffffffffffffffffffffffffffffffffffffff1602179055506040518060400160405280602f81526020016040518060400160405280600b81526020017f48656c6c6f20616761696e00000000000000000000000000000000000000000081525081525060066000820151816000015560208201518160010190805190602001906101619291906101f6565b50505034801561017057600080fd5b5061029b565b828054600181600116156101000203166002900490600052602060002090601f016020900481019282601f106101b757805160ff19168380011785556101e5565b828001600101855582156101e5579182015b828111156101e45782518255916020019190600101906101c9565b5b5090506101f29190610276565b5090565b828054600181600116156101000203166002900490600052602060002090601f016020900481019282601f1061023757805160ff1916838001178555610265565b82800160010185558215610265579182015b82811115610264578251825591602001919060010190610249565b5b5090506102729190610276565b5090565b61029891905b8082111561029457600081600090555060010161027c565b5090565b90565b610488806102aa6000396000f3fe608060405234801561001057600080fd5b50600436106100935760003560e01c8063492bfa1811610066578063492bfa181461013c5780634b3e7e0c146101bf5780638bc9fe6c146101dd578063a7dbce1c14610267578063e2a4b2af1461028557610093565b806306540f7e1461009857806320965255146100b657806326b85ee1146100d4578063392aee471461011e575b600080fd5b6100a06102a9565b6040518082815260200191505060405180910390f35b6100be6102af565b6040518082815260200191505060405180910390f35b6100dc6102bd565b604051808273ffffffffffffffffffffffffffffffffffffffff1673ffffffffffffffffffffffffffffffffffffffff16815260200191505060405180910390f35b6101266102e3565b6040518082815260200191505060405180910390f35b6101446102ec565b6040518080602001828103825283818151815260200191508051906020019080838360005b83811015610184578082015181840152602081019050610169565b50505050905090810190601f1680156101b15780820380516001836020036101000a031916815260200191505b509250505060405180910390f35b6101c761038a565b6040518082815260200191505060405180910390f35b6101e5610390565b6040518083815260200180602001828103825283818151815260200191508051906020019080838360005b8381101561022b578082015181840152602081019050610210565b50505050905090810190601f1680156102585780820380516001836020036101000a031916815260200191505b50935050505060405180910390f35b61026f61043a565b6040518082815260200191505060405180910390f35b61028d610440565b604051808260ff1660ff16815260200191505060405180910390f35b60005481565b600080600190508091505090565b600560009054906101000a900473ffffffffffffffffffffffffffffffffffffffff1681565b60008054905090565b60038054600181600116156101000203166002900480601f0160208091040260200160405190810160405280929190818152602001828054600181600116156101000203166002900480156103825780601f1061035757610100808354040283529160200191610382565b820191906000526020600020905b81548152906001019060200180831161036557829003601f168201915b505050505081565b60045481565b6006806000015490806001018054600181600116156101000203166002900480601f0160208091040260200160405190810160405280929190818152602001828054600181600116156101000203166002900480156104305780601f1061040557610100808354040283529160200191610430565b820191906000526020600020905b81548152906001019060200180831161041357829003601f168201915b5050505050905082565b60015481565b600260009054906101000a900460ff168156fea265627a7a723158207b2f55cfca7fddec2223cb47d214bfd270e7edb92fdf2e3b033290a49dadba9064736f6c63430005100032",
  "source": "// Ints, stings, address, struct\npragma solidity ^0.5.16;\n\ncontract DataTypesOne {\n\n\t// State vars (stored in blockchain)\n\tuint public myUint = 1; // defaults to uint256\n\tuint256 public myUint256 = 1;\n\tuint8 public myUint8 = 1;\n\tstring public myString = 'Hello!';\n\tbytes32 public myBytes32 = 'Smaller string';\n\taddress public myAddress = 0x8F42bDbaFef90Dd4434BB998912bD7771f8b0cC9;\n\n\tstruct MyStruct {\n\t\tuint myInt;\n\t\tstring myString;\n\t}\n\n\tMyStruct public myStruct = MyStruct(47, \"Hello again\");\n\n\t// Other Struct examples \n\tstruct Person { \n\t\tuint idNumber;\n\t\tstring name;\n\t}\n\tstruct Vote {\n\t\taddress voter;\n\t\tuint8 ballot;\n\t}\n\n\t// Accesing state vars from function. Not necesary to create a function just to get a state var, those get automatic getters for free.\n\tfunction getMyUint() public /*pure*/ returns(uint) {\n\t\treturn myUint;\n\t}\n\n\t// Local vars (inside functions)\n\tfunction getValue() public /*pure*/ returns(uint) {\n\t\tuint value = 1;\n\t\t//string otherValue = 'Hallo!'; // <-- ? error\n\t\treturn value;\n\t}\n\n}",
  "sourcePath": "/home/ecomerciar/Documents/tuts/truffle/basic-solidity-truffle/contracts/DataTypesOne.sol",
  "compiler": {
    "name": "solc",
    "version": "0.5.16+commit.9c3226ce.Emscripten.clang"
  },
  "schemaVersion": "3.2.3",
  "updatedAt": "2020-08-29T22:53:19.435Z",
  "networkType": "ethereum",
  "devdoc": {
    "methods": {}
  },
  "userdoc": {
    "methods": {}
  }
}