{
  "contractName": "DataTypesTwo",
  "abi": [
    {
      "constant": true,
      "inputs": [
        {
          "internalType": "uint256",
          "name": "",
          "type": "uint256"
        },
        {
          "internalType": "uint256",
          "name": "",
          "type": "uint256"
        }
      ],
      "name": "array2D",
      "outputs": [
        {
          "internalType": "uint256",
          "name": "",
          "type": "uint256"
        }
      ],
      "payable": false,
      "stateMutability": "view",
      "type": "function"
    },
    {
      "constant": true,
      "inputs": [
        {
          "internalType": "uint256",
          "name": "",
          "type": "uint256"
        }
      ],
      "name": "myStringArray",
      "outputs": [
        {
          "internalType": "string",
          "name": "",
          "type": "string"
        }
      ],
      "payable": false,
      "stateMutability": "view",
      "type": "function"
    },
    {
      "constant": true,
      "inputs": [
        {
          "internalType": "uint256",
          "name": "",
          "type": "uint256"
        }
      ],
      "name": "myUintArray",
      "outputs": [
        {
          "internalType": "uint256",
          "name": "",
          "type": "uint256"
        }
      ],
      "payable": false,
      "stateMutability": "view",
      "type": "function"
    },
    {
      "constant": true,
      "inputs": [
        {
          "internalType": "uint256",
          "name": "",
          "type": "uint256"
        }
      ],
      "name": "values",
      "outputs": [
        {
          "internalType": "string",
          "name": "",
          "type": "string"
        }
      ],
      "payable": false,
      "stateMutability": "view",
      "type": "function"
    },
    {
      "constant": false,
      "inputs": [
        {
          "internalType": "string",
          "name": "_value",
          "type": "string"
        }
      ],
      "name": "addValue",
      "outputs": [],
      "payable": false,
      "stateMutability": "nonpayable",
      "type": "function"
    },
    {
      "constant": true,
      "inputs": [],
      "name": "valueCount",
      "outputs": [
        {
          "internalType": "uint256",
          "name": "",
          "type": "uint256"
        }
      ],
      "payable": false,
      "stateMutability": "view",
      "type": "function"
    }
  ],
  "bytecode": "0x60806040526040518060600160405280600160ff168152602001600260ff168152602001600360ff1681525060009060036200003d92919062000193565b5060405180606001604052806040518060400160405280600581526020017f6170706c6500000000000000000000000000000000000000000000000000000081525081526020016040518060400160405280600681526020017f62616e616e61000000000000000000000000000000000000000000000000000081525081526020016040518060400160405280600681526020017f636172726f74000000000000000000000000000000000000000000000000000081525081525060019060036200010a929190620001ea565b5060405180604001604052806040518060600160405280600160ff168152602001600260ff168152602001600360ff1681525081526020016040518060600160405280600460ff168152602001600560ff168152602001600660ff1681525081525060039060026200017e92919062000251565b503480156200018c57600080fd5b506200048a565b828054828255906000526020600020908101928215620001d7579160200282015b82811115620001d6578251829060ff16905591602001919060010190620001b4565b5b509050620001e69190620002b3565b5090565b8280548282559060005260206000209081019282156200023e579160200282015b828111156200023d5782518290805190602001906200022c929190620002db565b50916020019190600101906200020b565b5b5090506200024d919062000362565b5090565b828054828255906000526020600020908101928215620002a0579160200282015b828111156200029f578251829060036200028e92919062000393565b509160200191906001019062000272565b5b509050620002af9190620003ea565b5090565b620002d891905b80821115620002d4576000816000905550600101620002ba565b5090565b90565b828054600181600116156101000203166002900490600052602060002090601f016020900481019282601f106200031e57805160ff19168380011785556200034f565b828001600101855582156200034f579182015b828111156200034e57825182559160200191906001019062000331565b5b5090506200035e9190620002b3565b5090565b6200039091905b808211156200038c57600081816200038291906200041b565b5060010162000369565b5090565b90565b828054828255906000526020600020908101928215620003d7579160200282015b82811115620003d6578251829060ff16905591602001919060010190620003b4565b5b509050620003e69190620002b3565b5090565b6200041891905b808211156200041457600081816200040a919062000467565b50600101620003f1565b5090565b90565b50805460018160011615610100020316600290046000825580601f1062000443575062000464565b601f016020900490600052602060002090810190620004639190620002b3565b5b50565b5080546000825590600052602060002090810190620004879190620002b3565b50565b61060f806200049a6000396000f3fe608060405234801561001057600080fd5b50600436106100625760003560e01c806326eb4dbb146100675780633a5fbaaa146100855780635e383d2114610140578063aa3546d9146101e7578063d3268fc11461028e578063f1addca2146102da575b600080fd5b61006f61031c565b6040518082815260200191505060405180910390f35b61013e6004803603602081101561009b57600080fd5b81019080803590602001906401000000008111156100b857600080fd5b8201836020820111156100ca57600080fd5b803590602001918460018302840111640100000000831117156100ec57600080fd5b91908080601f016020809104026020016040519081016040528093929190818152602001838380828437600081840152601f19601f820116905080830192505050505050509192919290505050610329565b005b61016c6004803603602081101561015657600080fd5b810190808035906020019092919050505061036b565b6040518080602001828103825283818151815260200191508051906020019080838360005b838110156101ac578082015181840152602081019050610191565b50505050905090810190601f1680156101d95780820380516001836020036101000a031916815260200191505b509250505060405180910390f35b610213600480360360208110156101fd57600080fd5b8101908080359060200190929190505050610424565b6040518080602001828103825283818151815260200191508051906020019080838360005b83811015610253578082015181840152602081019050610238565b50505050905090810190601f1680156102805780820380516001836020036101000a031916815260200191505b509250505060405180910390f35b6102c4600480360360408110156102a457600080fd5b8101908080359060200190929190803590602001909291905050506104dd565b6040518082815260200191505060405180910390f35b610306600480360360208110156102f057600080fd5b8101908080359060200190929190505050610514565b6040518082815260200191505060405180910390f35b6000600280549050905090565b6002819080600181540180825580915050906001820390600052602060002001600090919290919091509080519060200190610366929190610535565b505050565b6002818154811061037857fe5b906000526020600020016000915090508054600181600116156101000203166002900480601f01602080910402602001604051908101604052809291908181526020018280546001816001161561010002031660029004801561041c5780601f106103f15761010080835404028352916020019161041c565b820191906000526020600020905b8154815290600101906020018083116103ff57829003601f168201915b505050505081565b6001818154811061043157fe5b906000526020600020016000915090508054600181600116156101000203166002900480601f0160208091040260200160405190810160405280929190818152602001828054600181600116156101000203166002900480156104d55780601f106104aa576101008083540402835291602001916104d5565b820191906000526020600020905b8154815290600101906020018083116104b857829003601f168201915b505050505081565b600382815481106104ea57fe5b9060005260206000200181815481106104ff57fe5b90600052602060002001600091509150505481565b6000818154811061052157fe5b906000526020600020016000915090505481565b828054600181600116156101000203166002900490600052602060002090601f016020900481019282601f1061057657805160ff19168380011785556105a4565b828001600101855582156105a4579182015b828111156105a3578251825591602001919060010190610588565b5b5090506105b191906105b5565b5090565b6105d791905b808211156105d35760008160009055506001016105bb565b5090565b9056fea265627a7a72315820761031e77701f6958e4932abd2fb1703df5810b7fe52444fbc1fdc4775364bec64736f6c63430005100032",
  "source": "//https://www.youtube.com/watch?v=7Pm9HB-mJQg&list=PLS5SEs8ZftgVnWHv2_mkvJjn5HBOkde3g&index=3\n// Arrays\npragma solidity ^0.5.16;\n\ncontract DataTypesTwo {\n\n\t// Array\n\tuint[] public myUintArray = [1,2,3];\n\tstring[] public myStringArray = ['apple','banana','carrot'];\n\tstring[] public values;\n\tuint[][] public array2D = [[1,2,3], [4,5,6]];\n\n\tfunction addValue(string memory _value) public {\n\t\tvalues.push(_value);\n\t}\n\n\tfunction valueCount() public view returns (uint) {\n\t\treturn values.length;\n\t}\n\n}",
  "sourcePath": "/home/ecomerciar/Documents/tuts/truffle/basic-solidity-truffle/contracts/DataTypesTwo.sol",
  "compiler": {
    "name": "solc",
    "version": "0.5.16+commit.9c3226ce.Emscripten.clang"
  },
  "schemaVersion": "3.2.3",
  "updatedAt": "2020-08-29T22:53:19.437Z",
  "networkType": "ethereum",
  "devdoc": {
    "methods": {}
  },
  "userdoc": {
    "methods": {}
  }
}