{
  "contractName": "HotelRoom",
  "abi": [
    {
      "inputs": [],
      "payable": false,
      "stateMutability": "nonpayable",
      "type": "constructor"
    },
    {
      "anonymous": false,
      "inputs": [
        {
          "indexed": false,
          "internalType": "address",
          "name": "_occupant",
          "type": "address"
        },
        {
          "indexed": false,
          "internalType": "uint256",
          "name": "_value",
          "type": "uint256"
        }
      ],
      "name": "Occupy",
      "type": "event"
    },
    {
      "constant": true,
      "inputs": [],
      "name": "occupant",
      "outputs": [
        {
          "internalType": "address",
          "name": "",
          "type": "address"
        }
      ],
      "payable": false,
      "stateMutability": "view",
      "type": "function"
    },
    {
      "constant": true,
      "inputs": [],
      "name": "owner",
      "outputs": [
        {
          "internalType": "address payable",
          "name": "",
          "type": "address"
        }
      ],
      "payable": false,
      "stateMutability": "view",
      "type": "function"
    },
    {
      "constant": false,
      "inputs": [],
      "name": "receive",
      "outputs": [],
      "payable": true,
      "stateMutability": "payable",
      "type": "function"
    },
    {
      "constant": false,
      "inputs": [],
      "name": "leave",
      "outputs": [],
      "payable": false,
      "stateMutability": "nonpayable",
      "type": "function"
    }
  ],
  "bytecode": "0x608060405234801561001057600080fd5b5033600060016101000a81548173ffffffffffffffffffffffffffffffffffffffff021916908373ffffffffffffffffffffffffffffffffffffffff16021790555060008060006101000a81548160ff0219169083600181111561007057fe5b0217905550610569806100846000396000f3fe60806040526004361061003f5760003560e01c8063755d0817146100445780638da5cb5b1461009b578063a3e76c0f146100f2578063d66d9e19146100fc575b600080fd5b34801561005057600080fd5b50610059610113565b604051808273ffffffffffffffffffffffffffffffffffffffff1673ffffffffffffffffffffffffffffffffffffffff16815260200191505060405180910390f35b3480156100a757600080fd5b506100b0610139565b604051808273ffffffffffffffffffffffffffffffffffffffff1673ffffffffffffffffffffffffffffffffffffffff16815260200191505060405180910390f35b6100fa61015f565b005b34801561010857600080fd5b506101116103b3565b005b600160009054906101000a900473ffffffffffffffffffffffffffffffffffffffff1681565b600060019054906101000a900473ffffffffffffffffffffffffffffffffffffffff1681565b6000600181111561016c57fe5b6000809054906101000a900460ff16600181111561018657fe5b146101f9576040517f08c379a000000000000000000000000000000000000000000000000000000000815260040180806020018281038252601a8152602001807f526f6f6d2069732063757272656e746c79206f6363757069656400000000000081525060200191505060405180910390fd5b671bc16d674ec8000080341015610278576040517f08c379a00000000000000000000000000000000000000000000000000000000081526004018080602001828103825260198152602001807f4e6f7420656e6f756768206d6f6e65792070726f76696465640000000000000081525060200191505060405180910390fd5b60016000806101000a81548160ff0219169083600181111561029657fe5b0217905550600060019054906101000a900473ffffffffffffffffffffffffffffffffffffffff1673ffffffffffffffffffffffffffffffffffffffff166108fc349081150290604051600060405180830381858888f19350505050158015610303573d6000803e3d6000fd5b5033600160006101000a81548173ffffffffffffffffffffffffffffffffffffffff021916908373ffffffffffffffffffffffffffffffffffffffff1602179055507fba951166d42eb077151bdecb7cf6027562f04f0143b0c141b1bb0a33eef5d6933334604051808373ffffffffffffffffffffffffffffffffffffffff1673ffffffffffffffffffffffffffffffffffffffff1681526020018281526020019250505060405180910390a150565b600160009054906101000a900473ffffffffffffffffffffffffffffffffffffffff1673ffffffffffffffffffffffffffffffffffffffff163373ffffffffffffffffffffffffffffffffffffffff1614610476576040517f08c379a00000000000000000000000000000000000000000000000000000000081526004018080602001828103825260208152602001807f596f7520617265206e6f74207468652063757272656e74206f63637570616e7481525060200191505060405180910390fd5b60018081111561048257fe5b6000809054906101000a900460ff16600181111561049c57fe5b1461050f576040517f08c379a00000000000000000000000000000000000000000000000000000000081526004018080602001828103825260148152602001807f526f6f6d206973206e6f742063636f757069656400000000000000000000000081525060200191505060405180910390fd5b60008060006101000a81548160ff0219169083600181111561052d57fe5b021790555056fea265627a7a72315820e2b2b228cfe358eb278eb9a418427f81753aa53aab67f1f6785d7900881589da64736f6c63430005100032",
  "source": "pragma solidity ^0.5.16;\n\n// \n// Topcis covered: Ether payments, Modifiers, Visibility, Events, Enums\n\ncontract HotelRoom {\n\n\tenum Statuses { Vacant, Occupied }\n\tStatuses currentStatus;\n\t\n\taddress payable public owner;\n\taddress public occupant;\n\n\tconstructor() public {\n\t\towner = msg.sender;\n\t\tcurrentStatus = Statuses.Vacant;\n\t}\n\n\tevent Occupy(address _occupant, uint _value);\n\n\t// Modifiers\n\tmodifier onlyWhileVacant {\n\t\trequire(currentStatus == Statuses.Vacant, 'Room is currently occupied');\n\t\t_;\n\t}\n\tmodifier costs(uint _amount) {\n\t\trequire(msg.value >= _amount, 'Not enough money provided'); \n\t\t_;\n\t}\n\n\t// Special func name \"receive\"\n\tfunction receive() external payable onlyWhileVacant costs(2 ether) {\n\t\t// Check Status and price, extracted to two modifiers\n\t\t// require(currentStatus == Statuses.Vacant, 'Room is currently occupied');\n\t\t// require(msg.value >= 2 ether, 'Not enough etehr provided'); \n\t\t// Book it\n\t\tcurrentStatus = Statuses.Occupied;\n\t\towner.transfer(msg.value);\n\t\toccupant = msg.sender;\n\t\temit Occupy(msg.sender, msg.value);\n\t}\n\n\tfunction leave() public {\n\t\trequire(msg.sender == occupant, 'You are not the current occupant');\n\t\trequire(currentStatus == Statuses.Occupied, 'Room is not ccoupied');\n\t\tcurrentStatus = Statuses.Vacant;\n\t\t//occupant = null\n\t}\n\n}",
  "sourcePath": "/home/ecomerciar/Documents/tuts/truffle/basic-solidity-truffle/contracts/HotelRoom.sol",
  "compiler": {
    "name": "solc",
    "version": "0.5.16+commit.9c3226ce.Emscripten.clang"
  },
  "schemaVersion": "3.2.3",
  "updatedAt": "2020-08-29T22:53:19.446Z",
  "networkType": "ethereum",
  "devdoc": {
    "methods": {}
  },
  "userdoc": {
    "methods": {}
  }
}