{
  "contractName": "SecretVault",
  "abi": [
    {
      "inputs": [
        {
          "internalType": "string",
          "name": "_secret",
          "type": "string"
        }
      ],
      "payable": false,
      "stateMutability": "nonpayable",
      "type": "constructor"
    },
    {
      "constant": true,
      "inputs": [],
      "name": "getSecret",
      "outputs": [
        {
          "internalType": "string",
          "name": "",
          "type": "string"
        }
      ],
      "payable": false,
      "stateMutability": "view",
      "type": "function"
    }
  ],
  "bytecode": "0x608060405234801561001057600080fd5b506040516103493803806103498339818101604052602081101561003357600080fd5b810190808051604051939291908464010000000082111561005357600080fd5b8382019150602082018581111561006957600080fd5b825186600182028301116401000000008211171561008657600080fd5b8083526020830192505050908051906020019080838360005b838110156100ba57808201518184015260208101905061009f565b50505050905090810190601f1680156100e75780820380516001836020036101000a031916815260200191505b50604052505050806000908051906020019061010492919061010b565b50506101b0565b828054600181600116156101000203166002900490600052602060002090601f016020900481019282601f1061014c57805160ff191683800117855561017a565b8280016001018555821561017a579182015b8281111561017957825182559160200191906001019061015e565b5b509050610187919061018b565b5090565b6101ad91905b808211156101a9576000816000905550600101610191565b5090565b90565b61018a806101bf6000396000f3fe608060405234801561001057600080fd5b506004361061002b5760003560e01c80635b9fdc3014610030575b600080fd5b6100386100b3565b6040518080602001828103825283818151815260200191508051906020019080838360005b8381101561007857808201518184015260208101905061005d565b50505050905090810190601f1680156100a55780820380516001836020036101000a031916815260200191505b509250505060405180910390f35b606060008054600181600116156101000203166002900480601f01602080910402602001604051908101604052809291908181526020018280546001816001161561010002031660029004801561014b5780601f106101205761010080835404028352916020019161014b565b820191906000526020600020905b81548152906001019060200180831161012e57829003601f168201915b505050505090509056fea265627a7a72315820eaa97f5b434205fc59dffd3c322c2c56d724b3d1928d05ef0523cee4ac3bd42864736f6c63430005100032",
  "source": "pragma solidity ^0.5.16;\n\n// Topics Covered: Inheritance, \n\ncontract Ownable {\n\t\n\taddress owner;\n\n\tconstructor() public {\n\t\towner = msg.sender;\n\t}\n\n\tmodifier onlyOwner() {\n\t\trequire(msg.sender == owner, 'Must be owner');\n\t\t_;\n\t}\n}\n\n\ncontract SecretVault {\n\n\tstring secret;\n\n\tconstructor(string memory _secret) public {\n\t\tsecret = _secret;\n\t}\n\n\tfunction getSecret() public view returns(string memory) {\n\t\treturn secret;\n\t}\n\n}\n\ncontract MultiContracts is Ownable {\n\taddress secretVaultAddr;\n\n\tconstructor(string memory _secret) public {\n\t\tSecretVault _secretVault = new SecretVault(_secret);\n\t\tsecretVaultAddr = address(_secretVault);\n\t\tsuper;\n\t}\n\n\tfunction getSecret() public view onlyOwner returns(string memory) {\n\t\tSecretVault _secretVault = SecretVault(secretVaultAddr);\n\t\treturn _secretVault.getSecret();\n\t}\n\n}",
  "sourcePath": "/home/ecomerciar/Documents/tuts/truffle/basic-solidity-truffle/contracts/MultiContracts.sol",
  "compiler": {
    "name": "solc",
    "version": "0.5.16+commit.9c3226ce.Emscripten.clang"
  },
  "schemaVersion": "3.2.3",
  "updatedAt": "2020-08-29T22:53:18.865Z",
  "devdoc": {
    "methods": {}
  },
  "userdoc": {
    "methods": {}
  }
}